:100000000C9462000C948A000C948A000C948A0070
:100010000C948A000C948A000C948A000C948A0038
:100020000C948A000C948A000C948A000C948A0028
:100030000C948A000C948A000C948A000C948A0018
:100040000C945B020C948A000C94CB020C94A502D5
:100050000C948A000C948A000C948A000C948A00F8
:100060000C948A000C948A000000000024002700F1
:100070002A0000000000250028002B0000000000DE
:1000800023002600290004040404040404040202DA
:100090000202020203030303030301020408102007
:1000A0004080010204081020010204081020000012
:1000B0000008000201000003040700000000000027
:1000C0000000590411241FBECFEFD8E0DEBFCDBF22
:1000D00011E0A0E0B1E0E6E2F9E002C005900D9287
:1000E000A231B107D9F721E0A2E1B1E001C01D9230
:1000F000A83CB207E1F710E0C2E6D0E004C02197C7
:10010000FE010E948604C136D107C9F70E94FD0294
:100110000C9491040C940000833081F028F4813019
:1001200099F08230A1F008958730A9F08830B9F0B5
:100130008430D1F4809180008F7D03C08091800055
:100140008F7780938000089584B58F7702C084B53F
:100150008F7D84BD08958091B0008F7703C080911A
:10016000B0008F7D8093B0000895CF93DF93282F48
:1001700030E0F901E255FF4F8491F901E656FF4F57
:10018000D491F901EA57FF4FC491CC2391F081112A
:100190000E948C00EC2FF0E0EE0FFF1FE458FF4FA1
:1001A000A591B491EC91ED2381E090E021F480E001
:1001B00002C080E090E0DF91CF9108951F93CF932C
:1001C000DF93282F30E0F901E255FF4F8491F901C8
:1001D000E656FF4FD491F901EA57FF4FC491CC2363
:1001E000C1F0162F81110E948C00EC2FF0E0EE0F71
:1001F000FF1FEE58FF4FA591B4919FB7F8941111CE
:1002000004C08C91D095D82302C0EC91DE2BDC93F6
:100210009FBFDF91CF911F910895CF93DF9390E01F
:10022000FC01E656FF4F2491FC01EA57FF4F8491F1
:10023000882361F190E0880F991FFC01E859FF4F76
:10024000C591D491FC01EE58FF4FA591B491611175
:1002500009C09FB7F8948881209582238883EC9108
:100260002E230BC0623061F49FB7F8948881322F3F
:10027000309583238883EC912E2B2C939FBF06C04F
:100280008FB7F894E8812E2B28838FBFDF91CF9111
:100290000895CF92DF92EF92FF920F931F93CF9327
:1002A000DF936C017A018B01C0E0D0E0CE15DF0551
:1002B00081F0D8016D918D01D601ED91FC910190F5
:1002C000F081E02DC6010995892B11F02196EECF22
:1002D0007E01C701DF91CF911F910F91FF90EF90A9
:1002E000DF90CF900895089580E090E00895FC019C
:1002F000538D448D252F30E0842F90E0821B930B8B
:10030000541710F0CF96089501970895FC01918D30
:10031000828D981761F0828DDF01A80FB11D5D9667
:100320008C91928D9F5F9F73928F90E008958FEFD5
:100330009FEF0895FC01918D828D981731F0828D89
:10034000E80FF11D858D90E008958FEF9FEF0895E0
:10035000FC01918D228D892F90E0805C9F4F821B44
:1003600091098F739927089582E191E00E94A80175
:1003700021E0892B09F420E0822F0895FC01848D6F
:10038000DF01A80FB11DA35ABF4F2C91848D90E0BF
:1003900001968F739927848FA689B7892C93A0899A
:1003A000B1898C91837080648C93938D848D981324
:1003B00006C00288F389E02D80818F7D80830895B7
:1003C000EF92FF920F931F93CF93DF93EC0181E0A5
:1003D000888F9B8D8C8D981305C0E889F989808161
:1003E00085FD26C0F62E0B8D10E00F5F1F4F0F739B
:1003F0001127E02E8C8DE8120CC00FB607FCFACF47
:10040000E889F989808185FFF5CFCE010E94BE0180
:10041000F1CF8B8DFE01E80FF11DE35AFF4FF08203
:100420009FB7F8940B8FEA89FB89808180620AC0AC
:100430009FB7F894EE89FF896083E889F989808104
:100440008370806480839FBF81E090E0DF91CF91D3
:100450001F910F91FF90EF900895CF93DF93EC01E0
:10046000888D8823C9F0EA89FB89808185FD05C0D4
:10047000A889B9898C9186FD0FC00FB607FCF5CF0E
:10048000808185FFF2CFA889B9898C9185FFEDCF56
:10049000CE010E94BE01E7CFDF91CF91089580E0A9
:1004A00090E0892B29F00E94B40181110C94000086
:1004B00008950E948C041F920F920FB60F92112480
:1004C0002F933F938F939F93AF93BF938091C401DA
:1004D0009091C501A091C601B091C7013091C301AF
:1004E00023E0230F2D3720F40196A11DB11D05C077
:1004F00026E8230F0296A11DB11D2093C30180930E
:10050000C4019093C501A093C601B093C701809127
:10051000BF019091C001A091C101B091C2010196AB
:10052000A11DB11D8093BF019093C001A093C10193
:10053000B093C201BF91AF919F918F913F912F9145
:100540000F900FBE0F901F9018951F920F920FB62D
:100550000F9211242F933F934F935F936F937F9349
:100560008F939F93AF93BF93EF93FF9382E191E0BB
:100570000E94BE01FF91EF91BF91AF919F918F912A
:100580007F916F915F914F913F912F910F900FBE8F
:100590000F901F9018951F920F920FB60F92112473
:1005A0002F938F939F93EF93FF93E0912201F0910C
:1005B00023018081E0912801F091290182FD12C080
:1005C000908180912B018F5F8F7320912C01821776
:1005D00051F0E0912B01F0E0EE5EFE4F958F80939D
:1005E0002B0101C08081FF91EF919F918F912F91FD
:1005F0000F900FBE0F901F901895789484B582606D
:1006000084BD84B5816084BD85B5826085BD85B5B6
:10061000816085BD80916E00816080936E00109234
:1006200081008091810082608093810080918100AF
:100630008160809381008091800081608093800040
:100640008091B10084608093B1008091B00081609E
:100650008093B00080917A00846080937A008091CA
:100660007A00826080937A0080917A008160809322
:100670007A0080917A00806880937A001092C1009D
:10068000E0912201F091230182E08083E0911E013C
:10069000F0911F011082E0912001F091210180E191
:1006A000808310922A01E0912601F091270186E0D3
:1006B0008083E0912401F091250180818061808315
:1006C000E0912401F0912501808188608083E09190
:1006D0002401F0912501808180688083E0912401CC
:1006E000F091250180818F7D808361E084E00E940C
:1006F0000D0161E083E00E940D0162E087E00E944D
:100700000D0162E085E00E940D0160E084E00E943E
:10071000DE0060E083E00E94DE0087E00E94B5001A
:1007200085E00E94B5008FB7F894C090C401D090C6
:10073000C501E090C601F090C7018FBFC092BB0118
:10074000D092BC01E092BD01F092BE0187E00E9410
:10075000B500892BC1F461E084E00E94DE002FB770
:10076000F8948091C4019091C501A091C601B09107
:10077000C7012FBF8093B7019093B801A093B9012F
:10078000B093BA0119C087E00E94B5000197A1F4A7
:100790008091B7019091B801A091B901B091BA01CF
:1007A000C81AD90AEA0AFB0A21EDC21627E0D206C6
:1007B000E104F10408F06EC087E00E94B500892BC7
:1007C000C1F461E084E00E94DE002FB7F8948091CC
:1007D000C4019091C501A091C601B091C7012FBF7E
:1007E0008093B3019093B401A093B501B093B60187
:1007F00013C087E00E94B500019771F48091B301A6
:100800009091B401A091B501B091B601893B9B4094
:10081000A105B10508F043C085E00E94B500892B11
:10082000C1F461E083E00E94DE002FB7F89480916C
:10083000C4019091C501A091C601B091C7012FBF1D
:100840008093AF019093B001A093B101B093B20136
:100850001EC085E00E94B5000197C9F48091BB01DC
:100860009091BC01A091BD01B091BE014091AF013A
:100870005091B0016091B1017091B201841B950B50
:10088000A60BB70B813D9740A105B10568F40E9406
:100890004F0243CF60E084E00E94DE008DCF60E035
:1008A00084E00E94DE00B8CF60E083E00E94DE00BA
:1008B000EECFE2E1F1E01382128288EE93E0A0E055
:1008C000B0E084839583A683B78384E091E091832D
:1008D000808385EC90E09587848784EC90E097870F
:1008E000868780EC90E0918B808B81EC90E0938BFD
:1008F000828B82EC90E0958B848B86EC90E0978BDA
:10090000868B118E128E138E148E0895EE0FFF1F9C
:100910000590F491E02D099481E090E0F8940C9416
:060920009104F894FFCFE2
:1009260000000000E001490177012D02A8018601BF
:020936009A0124
:00000001FF
